{
    "_format": "hh-sol-artifact-1",
    "contractName": "Raffle",
    "sourceName": "contracts/Raffle.sol",
    "abi": [
        {
            "inputs": [
                {
                    "internalType": "uint256",
                    "name": "entranceFee",
                    "type": "uint256"
                },
                {
                    "internalType": "address",
                    "name": "vrfCoordinatorV2",
                    "type": "address"
                },
                {
                    "internalType": "bytes32",
                    "name": "gasLane",
                    "type": "bytes32"
                },
                {
                    "internalType": "uint16",
                    "name": "subscriptionId",
                    "type": "uint16"
                },
                {
                    "internalType": "uint32",
                    "name": "callbackGasLimit",
                    "type": "uint32"
                },
                {
                    "internalType": "uint256",
                    "name": "interval",
                    "type": "uint256"
                }
            ],
            "stateMutability": "nonpayable",
            "type": "constructor"
        },
        {
            "inputs": [
                {
                    "internalType": "address",
                    "name": "have",
                    "type": "address"
                },
                {
                    "internalType": "address",
                    "name": "want",
                    "type": "address"
                }
            ],
            "name": "OnlyCoordinatorCanFulfill",
            "type": "error"
        },
        {
            "inputs": [],
            "name": "Raffle_NotEnoughETHEntered",
            "type": "error"
        },
        {
            "inputs": [
                {
                    "internalType": "uint256",
                    "name": "currentBalance",
                    "type": "uint256"
                },
                {
                    "internalType": "uint256",
                    "name": "players",
                    "type": "uint256"
                },
                {
                    "internalType": "uint256",
                    "name": "state",
                    "type": "uint256"
                }
            ],
            "name": "Raffle_UpkeepNotNeed",
            "type": "error"
        },
        {
            "inputs": [],
            "name": "Raflle_NotOpen",
            "type": "error"
        },
        {
            "inputs": [],
            "name": "Transfer_Failed",
            "type": "error"
        },
        {
            "anonymous": false,
            "inputs": [
                {
                    "indexed": true,
                    "internalType": "address",
                    "name": "player",
                    "type": "address"
                },
                {
                    "indexed": false,
                    "internalType": "uint256",
                    "name": "amount",
                    "type": "uint256"
                },
                {
                    "indexed": true,
                    "internalType": "uint256",
                    "name": "roundId",
                    "type": "uint256"
                }
            ],
            "name": "RaffleEnter",
            "type": "event"
        },
        {
            "anonymous": false,
            "inputs": [
                {
                    "indexed": true,
                    "internalType": "uint256",
                    "name": "requestId",
                    "type": "uint256"
                }
            ],
            "name": "RequestedRaffleWinner",
            "type": "event"
        },
        {
            "anonymous": false,
            "inputs": [
                {
                    "indexed": true,
                    "internalType": "uint256",
                    "name": "roundId",
                    "type": "uint256"
                }
            ],
            "name": "StartNewRound",
            "type": "event"
        },
        {
            "anonymous": false,
            "inputs": [
                {
                    "indexed": true,
                    "internalType": "address",
                    "name": "winner",
                    "type": "address"
                },
                {
                    "indexed": true,
                    "internalType": "uint256",
                    "name": "roundId",
                    "type": "uint256"
                }
            ],
            "name": "WinnerPicked",
            "type": "event"
        },
        {
            "inputs": [
                {
                    "internalType": "bytes",
                    "name": "checkData",
                    "type": "bytes"
                }
            ],
            "name": "checkUpkeep",
            "outputs": [
                {
                    "internalType": "bool",
                    "name": "upkeepNeeded",
                    "type": "bool"
                },
                {
                    "internalType": "bytes",
                    "name": "performData",
                    "type": "bytes"
                }
            ],
            "stateMutability": "nonpayable",
            "type": "function"
        },
        {
            "inputs": [],
            "name": "enterRaffle",
            "outputs": [],
            "stateMutability": "payable",
            "type": "function"
        },
        {
            "inputs": [],
            "name": "getBalance",
            "outputs": [
                {
                    "internalType": "uint256",
                    "name": "",
                    "type": "uint256"
                }
            ],
            "stateMutability": "view",
            "type": "function"
        },
        {
            "inputs": [],
            "name": "getCurrentInterval",
            "outputs": [
                {
                    "internalType": "uint256",
                    "name": "",
                    "type": "uint256"
                }
            ],
            "stateMutability": "view",
            "type": "function"
        },
        {
            "inputs": [],
            "name": "getEntranceFee",
            "outputs": [
                {
                    "internalType": "uint256",
                    "name": "",
                    "type": "uint256"
                }
            ],
            "stateMutability": "view",
            "type": "function"
        },
        {
            "inputs": [],
            "name": "getGasLane",
            "outputs": [
                {
                    "internalType": "bytes32",
                    "name": "",
                    "type": "bytes32"
                }
            ],
            "stateMutability": "view",
            "type": "function"
        },
        {
            "inputs": [],
            "name": "getGasLimit",
            "outputs": [
                {
                    "internalType": "uint32",
                    "name": "",
                    "type": "uint32"
                }
            ],
            "stateMutability": "view",
            "type": "function"
        },
        {
            "inputs": [
                {
                    "internalType": "uint256",
                    "name": "index",
                    "type": "uint256"
                }
            ],
            "name": "getPlayer",
            "outputs": [
                {
                    "internalType": "address",
                    "name": "",
                    "type": "address"
                }
            ],
            "stateMutability": "view",
            "type": "function"
        },
        {
            "inputs": [],
            "name": "getRaffleState",
            "outputs": [
                {
                    "internalType": "enum Raffle.RaffleState",
                    "name": "",
                    "type": "uint8"
                }
            ],
            "stateMutability": "view",
            "type": "function"
        },
        {
            "inputs": [],
            "name": "getRecentWinner",
            "outputs": [
                {
                    "internalType": "address",
                    "name": "",
                    "type": "address"
                }
            ],
            "stateMutability": "view",
            "type": "function"
        },
        {
            "inputs": [],
            "name": "getRoundId",
            "outputs": [
                {
                    "internalType": "uint256",
                    "name": "",
                    "type": "uint256"
                }
            ],
            "stateMutability": "view",
            "type": "function"
        },
        {
            "inputs": [],
            "name": "getSubscriptionId",
            "outputs": [
                {
                    "internalType": "uint64",
                    "name": "",
                    "type": "uint64"
                }
            ],
            "stateMutability": "view",
            "type": "function"
        },
        {
            "inputs": [
                {
                    "internalType": "bytes",
                    "name": "performData",
                    "type": "bytes"
                }
            ],
            "name": "performUpkeep",
            "outputs": [],
            "stateMutability": "nonpayable",
            "type": "function"
        },
        {
            "inputs": [
                {
                    "internalType": "uint256",
                    "name": "requestId",
                    "type": "uint256"
                },
                {
                    "internalType": "uint256[]",
                    "name": "randomWords",
                    "type": "uint256[]"
                }
            ],
            "name": "rawFulfillRandomWords",
            "outputs": [],
            "stateMutability": "nonpayable",
            "type": "function"
        },
        {
            "inputs": [
                {
                    "internalType": "enum Raffle.RaffleState",
                    "name": "_state",
                    "type": "uint8"
                }
            ],
            "name": "setRaffleState",
            "outputs": [],
            "stateMutability": "nonpayable",
            "type": "function"
        }
    ],
    "bytecode": "0x6101606040523480156200001257600080fd5b5060405162001a9e38038062001a9e8339818101604052810190620000389190620002a6565b848073ffffffffffffffffffffffffffffffffffffffff1660808173ffffffffffffffffffffffffffffffffffffffff1660601b81525050508560a081815250508473ffffffffffffffffffffffffffffffffffffffff1660c08173ffffffffffffffffffffffffffffffffffffffff1660601b815250508360e081815250508261ffff1667ffffffffffffffff166101008167ffffffffffffffff1660c01b815250508163ffffffff166101208163ffffffff1660e01b815250506000600160146101000a81548160ff021916908360018111156200011d576200011c62000342565b5b021790555042600281905550806101408181525050600160038190555050505050505062000371565b600080fd5b6000819050919050565b62000160816200014b565b81146200016c57600080fd5b50565b600081519050620001808162000155565b92915050565b600073ffffffffffffffffffffffffffffffffffffffff82169050919050565b6000620001b38262000186565b9050919050565b620001c581620001a6565b8114620001d157600080fd5b50565b600081519050620001e581620001ba565b92915050565b6000819050919050565b6200020081620001eb565b81146200020c57600080fd5b50565b6000815190506200022081620001f5565b92915050565b600061ffff82169050919050565b6200023f8162000226565b81146200024b57600080fd5b50565b6000815190506200025f8162000234565b92915050565b600063ffffffff82169050919050565b620002808162000265565b81146200028c57600080fd5b50565b600081519050620002a08162000275565b92915050565b60008060008060008060c08789031215620002c657620002c562000146565b5b6000620002d689828a016200016f565b9650506020620002e989828a01620001d4565b9550506040620002fc89828a016200020f565b94505060606200030f89828a016200024e565b93505060806200032289828a016200028f565b92505060a06200033589828a016200016f565b9150509295509295509295565b7f4e487b7100000000000000000000000000000000000000000000000000000000600052602160045260246000fd5b60805160601c60a05160c05160601c60e0516101005160c01c6101205160e01c610140516116a3620003fb60003960006108700152600081816103bb015261073c01526000818161071901526109330152600081816106f8015261090b015260006106bc01526000818161037401526104a10152600081816103e1015261043501526116a36000f3fe6080604052600436106100e85760003560e01c80634585e33b1161008a578063c19dd76b11610059578063c19dd76b146102b2578063de3d9fb7146102dd578063e55ae4e814610308578063f57ee77b14610345576100e8565b80634585e33b146101f7578063473f1ddc146102205780636e04ff0d1461024b5780639eb6a5a814610289576100e8565b80631a93d1c3116100c65780631a93d1c31461016e5780631fe543e3146101995780632cfcc539146101c257806344e43c98146101cc576100e8565b806309bc33a7146100ed578063115cbaf51461011857806312065fe014610143575b600080fd5b3480156100f957600080fd5b50610102610370565b60405161010f9190610ce5565b60405180910390f35b34801561012457600080fd5b5061012d610398565b60405161013a9190610d77565b60405180910390f35b34801561014f57600080fd5b506101586103af565b6040516101659190610ce5565b60405180910390f35b34801561017a57600080fd5b506101836103b7565b6040516101909190610db1565b60405180910390f35b3480156101a557600080fd5b506101c060048036038101906101bb9190610f65565b6103df565b005b6101ca61049f565b005b3480156101d857600080fd5b506101e161061c565b6040516101ee9190610ce5565b60405180910390f35b34801561020357600080fd5b5061021e6004803603810190610219919061101c565b610631565b005b34801561022c57600080fd5b50610235610804565b60405161024291906110aa565b60405180910390f35b34801561025757600080fd5b50610272600480360381019061026d919061117a565b61082e565b604051610280929190611266565b60405180910390f35b34801561029557600080fd5b506102b060048036038101906102ab91906112bb565b6108da565b005b3480156102be57600080fd5b506102c7610907565b6040516102d49190611301565b60405180910390f35b3480156102e957600080fd5b506102f261092f565b6040516102ff919061133f565b60405180910390f35b34801561031457600080fd5b5061032f600480360381019061032a919061135a565b610957565b60405161033c91906110aa565b60405180910390f35b34801561035157600080fd5b5061035a61099e565b6040516103679190610ce5565b60405180910390f35b60007f0000000000000000000000000000000000000000000000000000000000000000905090565b6000600160149054906101000a900460ff16905090565b600047905090565b60007f0000000000000000000000000000000000000000000000000000000000000000905090565b7f000000000000000000000000000000000000000000000000000000000000000073ffffffffffffffffffffffffffffffffffffffff163373ffffffffffffffffffffffffffffffffffffffff161461049157337f00000000000000000000000000000000000000000000000000000000000000006040517f1cf993f4000000000000000000000000000000000000000000000000000000008152600401610488929190611387565b60405180910390fd5b61049b82826109a8565b5050565b7f00000000000000000000000000000000000000000000000000000000000000003410156104f9576040517f74938f2700000000000000000000000000000000000000000000000000000000815260040160405180910390fd5b6000600181111561050d5761050c610d00565b5b600160149054906101000a900460ff16600181111561052f5761052e610d00565b5b14610566576040517fcc40f65500000000000000000000000000000000000000000000000000000000815260040160405180910390fd5b6000339080600181540180825580915050600190039060005260206000200160009091909190916101000a81548173ffffffffffffffffffffffffffffffffffffffff021916908373ffffffffffffffffffffffffffffffffffffffff1602179055506003543373ffffffffffffffffffffffffffffffffffffffff167f084a564aac8fe4a04ec2d86f9117c45fc69653c290487d73c00b9d7298b83e20346040516106129190610ce5565b60405180910390a3565b60006002544261062c91906113df565b905090565b600061064b6040518060200160405280600081525061082e565b5090508061068e576040517f08c379a000000000000000000000000000000000000000000000000000000000815260040161068590611470565b60405180910390fd5b60018060146101000a81548160ff021916908360018111156106b3576106b2610d00565b5b021790555060007f000000000000000000000000000000000000000000000000000000000000000073ffffffffffffffffffffffffffffffffffffffff16635d3b1d307f00000000000000000000000000000000000000000000000000000000000000007f000000000000000000000000000000000000000000000000000000000000000060037f000000000000000000000000000000000000000000000000000000000000000060016040518663ffffffff1660e01b815260040161077d9594939291906114ad565b602060405180830381600087803b15801561079757600080fd5b505af11580156107ab573d6000803e3d6000fd5b505050506040513d601f19601f820116820180604052508101906107cf9190611515565b9050807fcd6e45c8998311cab7e9d4385596cac867e20a0587194b954fa3a731c93ce78b60405160405180910390a250505050565b6000600160009054906101000a900473ffffffffffffffffffffffffffffffffffffffff16905090565b60006060600080600181111561084757610846610d00565b5b600160149054906101000a900460ff16600181111561086957610868610d00565b5b14905060007f00000000000000000000000000000000000000000000000000000000000000006002544261089d91906113df565b119050600080600080549050119050600080471190508380156108bd5750825b80156108c65750815b80156108cf5750805b955050505050915091565b80600160146101000a81548160ff021916908360018111156108ff576108fe610d00565b5b021790555050565b60007f0000000000000000000000000000000000000000000000000000000000000000905090565b60007f0000000000000000000000000000000000000000000000000000000000000000905090565b600080828154811061096c5761096b611542565b5b9060005260206000200160009054906101000a900473ffffffffffffffffffffffffffffffffffffffff169050919050565b6000600354905090565b60008080549050826000815181106109c3576109c2611542565b5b60200260200101516109d591906115a0565b905060008082815481106109ec576109eb611542565b5b9060005260206000200160009054906101000a900473ffffffffffffffffffffffffffffffffffffffff16905080600160006101000a81548173ffffffffffffffffffffffffffffffffffffffff021916908373ffffffffffffffffffffffffffffffffffffffff1602179055506000600160146101000a81548160ff02191690836001811115610a8057610a7f610d00565b5b0217905550600067ffffffffffffffff811115610aa057610a9f610e22565b5b604051908082528060200260200182016040528015610ace5781602001602082028036833780820191505090505b5060009080519060200190610ae4929190610c25565b504260028190555060008173ffffffffffffffffffffffffffffffffffffffff1647604051610b1290611602565b60006040518083038185875af1925050503d8060008114610b4f576040519150601f19603f3d011682016040523d82523d6000602084013e610b54565b606091505b5050905080610b8f576040517f90914fd500000000000000000000000000000000000000000000000000000000815260040160405180910390fd5b6003548273ffffffffffffffffffffffffffffffffffffffff167f64791dbae5677392ba76761a5273633cec8f1d9d8cfe808da7bac6ef16a880be60405160405180910390a3600160036000828254610be89190611617565b925050819055506003547fa79d7edf4dcc0bfe14d93ffd4f335a9f42fb01a818205f9b3526fe14c2217be760405160405180910390a25050505050565b828054828255906000526020600020908101928215610c9e579160200282015b82811115610c9d5782518260006101000a81548173ffffffffffffffffffffffffffffffffffffffff021916908373ffffffffffffffffffffffffffffffffffffffff16021790555091602001919060010190610c45565b5b509050610cab9190610caf565b5090565b5b80821115610cc8576000816000905550600101610cb0565b5090565b6000819050919050565b610cdf81610ccc565b82525050565b6000602082019050610cfa6000830184610cd6565b92915050565b7f4e487b7100000000000000000000000000000000000000000000000000000000600052602160045260246000fd5b60028110610d4057610d3f610d00565b5b50565b6000819050610d5182610d2f565b919050565b6000610d6182610d43565b9050919050565b610d7181610d56565b82525050565b6000602082019050610d8c6000830184610d68565b92915050565b600063ffffffff82169050919050565b610dab81610d92565b82525050565b6000602082019050610dc66000830184610da2565b92915050565b6000604051905090565b600080fd5b600080fd5b610de981610ccc565b8114610df457600080fd5b50565b600081359050610e0681610de0565b92915050565b600080fd5b6000601f19601f8301169050919050565b7f4e487b7100000000000000000000000000000000000000000000000000000000600052604160045260246000fd5b610e5a82610e11565b810181811067ffffffffffffffff82111715610e7957610e78610e22565b5b80604052505050565b6000610e8c610dcc565b9050610e988282610e51565b919050565b600067ffffffffffffffff821115610eb857610eb7610e22565b5b602082029050602081019050919050565b600080fd5b6000610ee1610edc84610e9d565b610e82565b90508083825260208201905060208402830185811115610f0457610f03610ec9565b5b835b81811015610f2d5780610f198882610df7565b845260208401935050602081019050610f06565b5050509392505050565b600082601f830112610f4c57610f4b610e0c565b5b8135610f5c848260208601610ece565b91505092915050565b60008060408385031215610f7c57610f7b610dd6565b5b6000610f8a85828601610df7565b925050602083013567ffffffffffffffff811115610fab57610faa610ddb565b5b610fb785828601610f37565b9150509250929050565b600080fd5b60008083601f840112610fdc57610fdb610e0c565b5b8235905067ffffffffffffffff811115610ff957610ff8610fc1565b5b60208301915083600182028301111561101557611014610ec9565b5b9250929050565b6000806020838503121561103357611032610dd6565b5b600083013567ffffffffffffffff81111561105157611050610ddb565b5b61105d85828601610fc6565b92509250509250929050565b600073ffffffffffffffffffffffffffffffffffffffff82169050919050565b600061109482611069565b9050919050565b6110a481611089565b82525050565b60006020820190506110bf600083018461109b565b92915050565b600080fd5b600067ffffffffffffffff8211156110e5576110e4610e22565b5b6110ee82610e11565b9050602081019050919050565b82818337600083830152505050565b600061111d611118846110ca565b610e82565b905082815260208101848484011115611139576111386110c5565b5b6111448482856110fb565b509392505050565b600082601f83011261116157611160610e0c565b5b813561117184826020860161110a565b91505092915050565b6000602082840312156111905761118f610dd6565b5b600082013567ffffffffffffffff8111156111ae576111ad610ddb565b5b6111ba8482850161114c565b91505092915050565b60008115159050919050565b6111d8816111c3565b82525050565b600081519050919050565b600082825260208201905092915050565b60005b838110156112185780820151818401526020810190506111fd565b83811115611227576000848401525b50505050565b6000611238826111de565b61124281856111e9565b93506112528185602086016111fa565b61125b81610e11565b840191505092915050565b600060408201905061127b60008301856111cf565b818103602083015261128d818461122d565b90509392505050565b600281106112a357600080fd5b50565b6000813590506112b581611296565b92915050565b6000602082840312156112d1576112d0610dd6565b5b60006112df848285016112a6565b91505092915050565b6000819050919050565b6112fb816112e8565b82525050565b600060208201905061131660008301846112f2565b92915050565b600067ffffffffffffffff82169050919050565b6113398161131c565b82525050565b60006020820190506113546000830184611330565b92915050565b6000602082840312156113705761136f610dd6565b5b600061137e84828501610df7565b91505092915050565b600060408201905061139c600083018561109b565b6113a9602083018461109b565b9392505050565b7f4e487b7100000000000000000000000000000000000000000000000000000000600052601160045260246000fd5b60006113ea82610ccc565b91506113f583610ccc565b925082821015611408576114076113b0565b5b828203905092915050565b600082825260208201905092915050565b7f75706b6565704e656564206d7573742074727565000000000000000000000000600082015250565b600061145a601483611413565b915061146582611424565b602082019050919050565b600060208201905081810360008301526114898161144d565b9050919050565b600061ffff82169050919050565b6114a781611490565b82525050565b600060a0820190506114c260008301886112f2565b6114cf6020830187611330565b6114dc604083018661149e565b6114e96060830185610da2565b6114f66080830184610da2565b9695505050505050565b60008151905061150f81610de0565b92915050565b60006020828403121561152b5761152a610dd6565b5b600061153984828501611500565b91505092915050565b7f4e487b7100000000000000000000000000000000000000000000000000000000600052603260045260246000fd5b7f4e487b7100000000000000000000000000000000000000000000000000000000600052601260045260246000fd5b60006115ab82610ccc565b91506115b683610ccc565b9250826115c6576115c5611571565b5b828206905092915050565b600081905092915050565b50565b60006115ec6000836115d1565b91506115f7826115dc565b600082019050919050565b600061160d826115df565b9150819050919050565b600061162282610ccc565b915061162d83610ccc565b9250827fffffffffffffffffffffffffffffffffffffffffffffffffffffffffffffffff03821115611662576116616113b0565b5b82820190509291505056fea2646970667358221220565d2c19f4b24959eea22ac77dec5198956a0a72eb50eff02b6c2610eec6670264736f6c63430008080033",
    "linkReferences": {},
    "deployedLinkReferences": {}
}